{"abi":[{"type":"constructor","inputs":[{"name":"_ecoToken","type":"address","internalType":"address"}],"stateMutability":"nonpayable"},{"type":"function","name":"ecoToken","inputs":[],"outputs":[{"name":"","type":"address","internalType":"contract EcoReward"}],"stateMutability":"view"},{"type":"function","name":"owner","inputs":[],"outputs":[{"name":"","type":"address","internalType":"address"}],"stateMutability":"view"},{"type":"function","name":"renounceOwnership","inputs":[],"outputs":[],"stateMutability":"nonpayable"},{"type":"function","name":"setEcoToken","inputs":[{"name":"_ecoToken","type":"address","internalType":"address"}],"outputs":[],"stateMutability":"nonpayable"},{"type":"function","name":"setTask","inputs":[{"name":"taskId","type":"string","internalType":"string"},{"name":"baseReward","type":"uint256","internalType":"uint256"}],"outputs":[],"stateMutability":"nonpayable"},{"type":"function","name":"submitProof","inputs":[{"name":"taskId","type":"string","internalType":"string"},{"name":"proofHash","type":"string","internalType":"string"},{"name":"timestamp","type":"uint256","internalType":"uint256"}],"outputs":[],"stateMutability":"nonpayable"},{"type":"function","name":"tasks","inputs":[{"name":"","type":"string","internalType":"string"}],"outputs":[{"name":"baseReward","type":"uint256","internalType":"uint256"},{"name":"exists","type":"bool","internalType":"bool"}],"stateMutability":"view"},{"type":"function","name":"transferOwnership","inputs":[{"name":"newOwner","type":"address","internalType":"address"}],"outputs":[],"stateMutability":"nonpayable"},{"type":"function","name":"usedProofHashes","inputs":[{"name":"","type":"string","internalType":"string"}],"outputs":[{"name":"","type":"bool","internalType":"bool"}],"stateMutability":"view"},{"type":"event","name":"OwnershipTransferred","inputs":[{"name":"previousOwner","type":"address","indexed":true,"internalType":"address"},{"name":"newOwner","type":"address","indexed":true,"internalType":"address"}],"anonymous":false},{"type":"event","name":"ProofSubmitted","inputs":[{"name":"user","type":"address","indexed":true,"internalType":"address"},{"name":"taskId","type":"string","indexed":false,"internalType":"string"},{"name":"proofHash","type":"string","indexed":false,"internalType":"string"},{"name":"rewardMinted","type":"uint256","indexed":false,"internalType":"uint256"}],"anonymous":false},{"type":"event","name":"TaskSet","inputs":[{"name":"taskId","type":"string","indexed":false,"internalType":"string"},{"name":"baseReward","type":"uint256","indexed":false,"internalType":"uint256"}],"anonymous":false},{"type":"error","name":"OwnableInvalidOwner","inputs":[{"name":"owner","type":"address","internalType":"address"}]},{"type":"error","name":"OwnableUnauthorizedAccount","inputs":[{"name":"account","type":"address","internalType":"address"}]}],"bytecode":{"object":"0x608060405234801561000f575f5ffd5b5060405161143138038061143183398181016040528101906100319190610285565b335f73ffffffffffffffffffffffffffffffffffffffff168173ffffffffffffffffffffffffffffffffffffffff16036100a2575f6040517f1e4fbdf700000000000000000000000000000000000000000000000000000000815260040161009991906102bf565b60405180910390fd5b6100b18161016660201b60201c565b505f73ffffffffffffffffffffffffffffffffffffffff168173ffffffffffffffffffffffffffffffffffffffff1603610120576040517f08c379a000000000000000000000000000000000000000000000000000000000815260040161011790610332565b60405180910390fd5b8060015f6101000a81548173ffffffffffffffffffffffffffffffffffffffff021916908373ffffffffffffffffffffffffffffffffffffffff16021790555050610350565b5f5f5f9054906101000a900473ffffffffffffffffffffffffffffffffffffffff169050815f5f6101000a81548173ffffffffffffffffffffffffffffffffffffffff021916908373ffffffffffffffffffffffffffffffffffffffff1602179055508173ffffffffffffffffffffffffffffffffffffffff168173ffffffffffffffffffffffffffffffffffffffff167f8be0079c531659141344cd1fd0a4f28419497f9722a3daafe3b4186f6b6457e060405160405180910390a35050565b5f5ffd5b5f73ffffffffffffffffffffffffffffffffffffffff82169050919050565b5f6102548261022b565b9050919050565b6102648161024a565b811461026e575f5ffd5b50565b5f8151905061027f8161025b565b92915050565b5f6020828403121561029a57610299610227565b5b5f6102a784828501610271565b91505092915050565b6102b98161024a565b82525050565b5f6020820190506102d25f8301846102b0565b92915050565b5f82825260208201905092915050565b7f45636f56657269666965723a205a65726f206164647265737320746f6b656e005f82015250565b5f61031c601f836102d8565b9150610327826102e8565b602082019050919050565b5f6020820190508181035f83015261034981610310565b9050919050565b6110d48061035d5f395ff3fe608060405234801561000f575f5ffd5b5060043610610091575f3560e01c80638da5cb5b116100645780638da5cb5b1461010a578063c566e29314610128578063dd830e1114610158578063e6c7c34b14610174578063f2fde38b1461019057610091565b8063272e88bd1461009557806358709cf2146100b1578063705d5304146100e2578063715018a614610100575b5f5ffd5b6100af60048036038101906100aa91906108f9565b6101ac565b005b6100cb60048036038101906100c69190610a8e565b610256565b6040516100d9929190610afe565b60405180910390f35b6100ea61029a565b6040516100f79190610b9f565b60405180910390f35b6101086102bf565b005b6101126102d2565b60405161011f9190610bd8565b60405180910390f35b610142600480360381019061013d9190610a8e565b6102f9565b60405161014f9190610bf1565b60405180910390f35b610172600480360381019061016d9190610c34565b61032e565b005b61018e60048036038101906101899190610c5f565b6103e7565b005b6101aa60048036038101906101a59190610c34565b610681565b005b6101b4610705565b604051806040016040528082815260200160011515815250600284846040516101de929190610d1e565b90815260200160405180910390205f820151815f01556020820151816001015f6101000a81548160ff0219169083151502179055509050507f010ac333f8917977e858621489602932e4751b92addf0cd233663721c82f973483838360405161024993929190610d72565b60405180910390a1505050565b6002818051602081018201805184825260208301602085012081835280955050505050505f91509050805f015490806001015f9054906101000a900460ff16905082565b60015f9054906101000a900473ffffffffffffffffffffffffffffffffffffffff1681565b6102c7610705565b6102d05f61078c565b565b5f5f5f9054906101000a900473ffffffffffffffffffffffffffffffffffffffff16905090565b6003818051602081018201805184825260208301602085012081835280955050505050505f915054906101000a900460ff1681565b610336610705565b5f73ffffffffffffffffffffffffffffffffffffffff168173ffffffffffffffffffffffffffffffffffffffff16036103a4576040517f08c379a000000000000000000000000000000000000000000000000000000000815260040161039b90610dec565b60405180910390fd5b8060015f6101000a81548173ffffffffffffffffffffffffffffffffffffffff021916908373ffffffffffffffffffffffffffffffffffffffff16021790555050565b5f600286866040516103fa929190610d1e565b90815260200160405180910390209050806001015f9054906101000a900460ff1661045a576040517f08c379a000000000000000000000000000000000000000000000000000000000815260040161045190610e54565b60405180910390fd5b4282111561049d576040517f08c379a000000000000000000000000000000000000000000000000000000000815260040161049490610ebc565b60405180910390fd5b6202a30082426104ad9190610f07565b106104ed576040517f08c379a00000000000000000000000000000000000000000000000000000000081526004016104e490610faa565b60405180910390fd5b600384846040516104ff929190610d1e565b90815260200160405180910390205f9054906101000a900460ff161561055a576040517f08c379a000000000000000000000000000000000000000000000000000000000815260040161055190611012565b60405180910390fd5b60016003858560405161056e929190610d1e565b90815260200160405180910390205f6101000a81548160ff0219169083151502179055505f815f0154905060015f9054906101000a900473ffffffffffffffffffffffffffffffffffffffff1673ffffffffffffffffffffffffffffffffffffffff166340c10f1933836040518363ffffffff1660e01b81526004016105f5929190611030565b5f604051808303815f87803b15801561060c575f5ffd5b505af115801561061e573d5f5f3e3d5ffd5b505050503373ffffffffffffffffffffffffffffffffffffffff167f08c00e6bbb190376ceb358be7f48178b5ef4cc9f6a3a2177f06f446d6bdbca358888888886604051610670959493929190611057565b60405180910390a250505050505050565b610689610705565b5f73ffffffffffffffffffffffffffffffffffffffff168173ffffffffffffffffffffffffffffffffffffffff16036106f9575f6040517f1e4fbdf70000000000000000000000000000000000000000000000000000000081526004016106f09190610bd8565b60405180910390fd5b6107028161078c565b50565b61070d61084d565b73ffffffffffffffffffffffffffffffffffffffff1661072b6102d2565b73ffffffffffffffffffffffffffffffffffffffff161461078a5761074e61084d565b6040517f118cdaa70000000000000000000000000000000000000000000000000000000081526004016107819190610bd8565b60405180910390fd5b565b5f5f5f9054906101000a900473ffffffffffffffffffffffffffffffffffffffff169050815f5f6101000a81548173ffffffffffffffffffffffffffffffffffffffff021916908373ffffffffffffffffffffffffffffffffffffffff1602179055508173ffffffffffffffffffffffffffffffffffffffff168173ffffffffffffffffffffffffffffffffffffffff167f8be0079c531659141344cd1fd0a4f28419497f9722a3daafe3b4186f6b6457e060405160405180910390a35050565b5f33905090565b5f604051905090565b5f5ffd5b5f5ffd5b5f5ffd5b5f5ffd5b5f5ffd5b5f5f83601f84011261088657610885610865565b5b8235905067ffffffffffffffff8111156108a3576108a2610869565b5b6020830191508360018202830111156108bf576108be61086d565b5b9250929050565b5f819050919050565b6108d8816108c6565b81146108e2575f5ffd5b50565b5f813590506108f3816108cf565b92915050565b5f5f5f604084860312156109105761090f61085d565b5b5f84013567ffffffffffffffff81111561092d5761092c610861565b5b61093986828701610871565b9350935050602061094c868287016108e5565b9150509250925092565b5f5ffd5b5f601f19601f8301169050919050565b7f4e487b71000000000000000000000000000000000000000000000000000000005f52604160045260245ffd5b6109a08261095a565b810181811067ffffffffffffffff821117156109bf576109be61096a565b5b80604052505050565b5f6109d1610854565b90506109dd8282610997565b919050565b5f67ffffffffffffffff8211156109fc576109fb61096a565b5b610a058261095a565b9050602081019050919050565b828183375f83830152505050565b5f610a32610a2d846109e2565b6109c8565b905082815260208101848484011115610a4e57610a4d610956565b5b610a59848285610a12565b509392505050565b5f82601f830112610a7557610a74610865565b5b8135610a85848260208601610a20565b91505092915050565b5f60208284031215610aa357610aa261085d565b5b5f82013567ffffffffffffffff811115610ac057610abf610861565b5b610acc84828501610a61565b91505092915050565b610ade816108c6565b82525050565b5f8115159050919050565b610af881610ae4565b82525050565b5f604082019050610b115f830185610ad5565b610b1e6020830184610aef565b9392505050565b5f73ffffffffffffffffffffffffffffffffffffffff82169050919050565b5f819050919050565b5f610b67610b62610b5d84610b25565b610b44565b610b25565b9050919050565b5f610b7882610b4d565b9050919050565b5f610b8982610b6e565b9050919050565b610b9981610b7f565b82525050565b5f602082019050610bb25f830184610b90565b92915050565b5f610bc282610b25565b9050919050565b610bd281610bb8565b82525050565b5f602082019050610beb5f830184610bc9565b92915050565b5f602082019050610c045f830184610aef565b92915050565b610c1381610bb8565b8114610c1d575f5ffd5b50565b5f81359050610c2e81610c0a565b92915050565b5f60208284031215610c4957610c4861085d565b5b5f610c5684828501610c20565b91505092915050565b5f5f5f5f5f60608688031215610c7857610c7761085d565b5b5f86013567ffffffffffffffff811115610c9557610c94610861565b5b610ca188828901610871565b9550955050602086013567ffffffffffffffff811115610cc457610cc3610861565b5b610cd088828901610871565b93509350506040610ce3888289016108e5565b9150509295509295909350565b5f81905092915050565b5f610d058385610cf0565b9350610d12838584610a12565b82840190509392505050565b5f610d2a828486610cfa565b91508190509392505050565b5f82825260208201905092915050565b5f610d518385610d36565b9350610d5e838584610a12565b610d678361095a565b840190509392505050565b5f6040820190508181035f830152610d8b818587610d46565b9050610d9a6020830184610ad5565b949350505050565b7f45636f56657269666965723a205a65726f2061646472657373000000000000005f82015250565b5f610dd6601983610d36565b9150610de182610da2565b602082019050919050565b5f6020820190508181035f830152610e0381610dca565b9050919050565b7f45636f56657269666965723a205461736b206e6f7420666f756e6400000000005f82015250565b5f610e3e601b83610d36565b9150610e4982610e0a565b602082019050919050565b5f6020820190508181035f830152610e6b81610e32565b9050919050565b7f45636f56657269666965723a2050726f6f6620696e20746865206675747572655f82015250565b5f610ea6602083610d36565b9150610eb182610e72565b602082019050919050565b5f6020820190508181035f830152610ed381610e9a565b9050919050565b7f4e487b71000000000000000000000000000000000000000000000000000000005f52601160045260245ffd5b5f610f11826108c6565b9150610f1c836108c6565b9250828203905081811115610f3457610f33610eda565b5b92915050565b7f45636f56657269666965723a2050726f6f66206578706972656420283e3438685f8201527f2900000000000000000000000000000000000000000000000000000000000000602082015250565b5f610f94602183610d36565b9150610f9f82610f3a565b604082019050919050565b5f6020820190508181035f830152610fc181610f88565b9050919050565b7f45636f56657269666965723a2050726f6f6620616c72656164792075736564005f82015250565b5f610ffc601f83610d36565b915061100782610fc8565b602082019050919050565b5f6020820190508181035f83015261102981610ff0565b9050919050565b5f6040820190506110435f830185610bc9565b6110506020830184610ad5565b9392505050565b5f6060820190508181035f830152611070818789610d46565b90508181036020830152611085818587610d46565b90506110946040830184610ad5565b969550505050505056fea2646970667358221220bd3b5f77e9999d5b772a63c049a6bbeacf5e8a7e61f5c0e65f956f0d380b1e4164736f6c63430008210033","linkReferences":{}},"methodIdentifiers":{"ecoToken()":"705d5304","owner()":"8da5cb5b","renounceOwnership()":"715018a6","setEcoToken(address)":"dd830e11","setTask(string,uint256)":"272e88bd","submitProof(string,string,uint256)":"e6c7c34b","tasks(string)":"58709cf2","transferOwnership(address)":"f2fde38b","usedProofHashes(string)":"c566e293"},"id":30}